{
  "contractName": "Election",
  "abi": [
    {
      "constant": true,
      "inputs": [],
      "name": "votingStart",
      "outputs": [
        {
          "name": "",
          "type": "uint256"
        }
      ],
      "payable": false,
      "stateMutability": "view",
      "type": "function"
    },
    {
      "constant": true,
      "inputs": [
        {
          "name": "",
          "type": "uint256"
        }
      ],
      "name": "candidates",
      "outputs": [
        {
          "name": "name",
          "type": "string"
        },
        {
          "name": "voteCount",
          "type": "uint256"
        }
      ],
      "payable": false,
      "stateMutability": "view",
      "type": "function"
    },
    {
      "constant": true,
      "inputs": [],
      "name": "votingEnd",
      "outputs": [
        {
          "name": "",
          "type": "uint256"
        }
      ],
      "payable": false,
      "stateMutability": "view",
      "type": "function"
    },
    {
      "constant": true,
      "inputs": [
        {
          "name": "",
          "type": "address"
        }
      ],
      "name": "voters",
      "outputs": [
        {
          "name": "",
          "type": "bool"
        }
      ],
      "payable": false,
      "stateMutability": "view",
      "type": "function"
    },
    {
      "inputs": [
        {
          "name": "_candidateNames",
          "type": "string[]"
        },
        {
          "name": "_durationInMinutes",
          "type": "uint256"
        }
      ],
      "payable": false,
      "stateMutability": "nonpayable",
      "type": "constructor"
    },
    {
      "constant": false,
      "inputs": [
        {
          "name": "_name",
          "type": "string"
        }
      ],
      "name": "addCandidate",
      "outputs": [],
      "payable": false,
      "stateMutability": "nonpayable",
      "type": "function"
    },
    {
      "constant": false,
      "inputs": [
        {
          "name": "_candidateIndex",
          "type": "uint256"
        }
      ],
      "name": "vote",
      "outputs": [],
      "payable": false,
      "stateMutability": "nonpayable",
      "type": "function"
    },
    {
      "constant": true,
      "inputs": [],
      "name": "getAllVotesOfCandiates",
      "outputs": [
        {
          "components": [
            {
              "name": "name",
              "type": "string"
            },
            {
              "name": "voteCount",
              "type": "uint256"
            }
          ],
          "name": "",
          "type": "tuple[]"
        }
      ],
      "payable": false,
      "stateMutability": "view",
      "type": "function"
    },
    {
      "constant": true,
      "inputs": [],
      "name": "getVotingStatus",
      "outputs": [
        {
          "name": "",
          "type": "bool"
        }
      ],
      "payable": false,
      "stateMutability": "view",
      "type": "function"
    },
    {
      "constant": true,
      "inputs": [],
      "name": "getRemainingTime",
      "outputs": [
        {
          "name": "",
          "type": "uint256"
        }
      ],
      "payable": false,
      "stateMutability": "view",
      "type": "function"
    }
  ],
  "bytecode": "0x60806040523480156200001157600080fd5b5060405162000d5738038062000d57833981018060405262000037919081019062000269565b60005b8251811015620000bb576000604080519081016040528085848151811015156200006057fe5b6020908102909101810151825260009181018290528354600181018086559483529181902083518051600290940290910192620000a19284920190620000e4565b50602091909101516001918201559190910190506200003a565b5060018054600160a060020a03191633179055426003819055603c909102016004555062000362565b828054600181600116156101000203166002900490600052602060002090601f016020900481019282601f106200012757805160ff191683800117855562000157565b8280016001018555821562000157579182015b82811115620001575782518255916020019190600101906200013a565b506200016592915062000169565b5090565b6200018691905b8082111562000165576000815560010162000170565b90565b6000601f820183136200019b57600080fd5b8151620001b2620001ac82620002e6565b620002bf565b81815260209384019390925082018360005b83811015620001f45781518601620001dd8882620001fe565b8452506020928301929190910190600101620001c4565b5050505092915050565b6000601f820183136200021057600080fd5b815162000221620001ac8262000307565b915080825260208301602083018583830111156200023e57600080fd5b6200024b8382846200032f565b50505092915050565b600062000262825162000186565b9392505050565b600080604083850312156200027d57600080fd5b82516001604060020a038111156200029457600080fd5b620002a28582860162000189565b9250506020620002b58582860162000254565b9150509250929050565b6040518181016001604060020a0381118282101715620002de57600080fd5b604052919050565b60006001604060020a03821115620002fd57600080fd5b5060209081020190565b60006001604060020a038211156200031e57600080fd5b506020601f91909101601f19160190565b60005b838110156200034c57818101518382015260200162000332565b838111156200035c576000848401525b50505050565b6109e580620003726000396000f3fe608060405260043610610092577c010000000000000000000000000000000000000000000000000000000060003504630121b93f8114610097578063101158af146100b95780633477ee2e146100e4578063462e91ec146101125780634d6bda5f14610132578063581c281c1461015457806385a3863514610176578063a3ec138d1461018b578063efb98bcf146101ab575b600080fd5b3480156100a357600080fd5b506100b76100b23660046106c9565b6101c0565b005b3480156100c557600080fd5b506100ce610290565b6040516100db91906108d5565b60405180910390f35b3480156100f057600080fd5b506101046100ff3660046106c9565b610296565b6040516100db929190610885565b34801561011e57600080fd5b506100b761012d366004610694565b61034a565b34801561013e57600080fd5b506101476103e0565b6040516100db9190610860565b34801561016057600080fd5b506101696104d4565b6040516100db9190610871565b34801561018257600080fd5b506100ce6104ee565b34801561019757600080fd5b506101696101a636600461066e565b6104f4565b3480156101b757600080fd5b506100ce610509565b3360009081526002602052604090205460ff1615610213576040517f08c379a000000000000000000000000000000000000000000000000000000000815260040161020a906108a5565b60405180910390fd5b600054811061024e576040517f08c379a000000000000000000000000000000000000000000000000000000000815260040161020a906108b5565b600080548290811061025c57fe5b6000918252602080832060029283020160019081018054820190553384529190526040909120805460ff1916909117905550565b60035481565b60008054829081106102a457fe5b60009182526020918290206002918202018054604080516001831615610100026000190190921693909304601f81018590048502820185019093528281529093509183919083018282801561033a5780601f1061030f5761010080835404028352916020019161033a565b820191906000526020600020905b81548152906001019060200180831161031d57829003601f168201915b5050505050908060010154905082565b60015473ffffffffffffffffffffffffffffffffffffffff16331461036e57600080fd5b60408051808201909152818152600060208083018290528154600181018084559280528351805193949360029092027f290decd9548b62a8d60345a988386fc84ba6bc95484008f6362f93160ef3e56301926103cf92849290910190610563565b506020820151816001015550505050565b60606000805480602002602001604051908101604052809291908181526020016000905b828210156104ca5760008481526020908190206040805160028681029093018054600181161561010002600019011693909304601f8101859004909402810160609081018352918101848152909384928491908401828280156104a85780601f1061047d576101008083540402835291602001916104a8565b820191906000526020600020905b81548152906001019060200180831161048b57829003601f168201915b5050505050815260200160018201548152505081526020019060010190610404565b5050505090505b90565b600060035442101580156104e9575060045442105b905090565b60045481565b60026020526000908152604090205460ff1681565b600354600090421015610548576040517f08c379a000000000000000000000000000000000000000000000000000000000815260040161020a906108c5565b6004544210610559575060006104d1565b4260045403905090565b828054600181600116156101000203166002900490600052602060002090601f016020900481019282601f106105a457805160ff19168380011785556105d1565b828001600101855582156105d1579182015b828111156105d15782518255916020019190600101906105b6565b506105dd9291506105e1565b5090565b6104d191905b808211156105dd57600081556001016105e7565b6000610607823561095a565b9392505050565b6000601f8201831361061f57600080fd5b813561063261062d8261090a565b6108e3565b9150808252602083016020830185838301111561064e57600080fd5b610659838284610965565b50505092915050565b600061060782356104d1565b60006020828403121561068057600080fd5b600061068c84846105fb565b949350505050565b6000602082840312156106a657600080fd5b813567ffffffffffffffff8111156106bd57600080fd5b61068c8482850161060e565b6000602082840312156106db57600080fd5b600061068c8484610662565b60006106f282610938565b8084526020840193508360208202850161070b85610932565b60005b84811015610742578383038852610726838351610822565b925061073182610932565b60209890980197915060010161070e565b50909695505050505050565b6107578161093c565b82525050565b600061076882610938565b80845261077c816020860160208601610971565b610785816109a1565b9093016020019392505050565b601781527f596f75206861766520616c726561647920766f7465642e000000000000000000602082015260400190565b601881527f496e76616c69642063616e64696461746520696e6465782e0000000000000000602082015260400190565b601b81527f566f74696e6720686173206e6f742073746172746564207965742e0000000000602082015260400190565b805160408084526000919084019061083a828261075d565b915050602083015161084f6020860182610857565b509392505050565b610757816104d1565b6020808252810161060781846106e7565b6020810161087f828461074e565b92915050565b60408082528101610896818561075d565b90506106076020830184610857565b6020808252810161087f81610792565b6020808252810161087f816107c2565b6020808252810161087f816107f2565b6020810161087f8284610857565b60405181810167ffffffffffffffff8111828210171561090257600080fd5b604052919050565b600067ffffffffffffffff82111561092157600080fd5b506020601f91909101601f19160190565b60200190565b5190565b151590565b73ffffffffffffffffffffffffffffffffffffffff1690565b600061087f82610941565b82818337506000910152565b60005b8381101561098c578181015183820152602001610974565b8381111561099b576000848401525b50505050565b601f01601f19169056fea265627a7a7230582095023c371b84edb1a02a275fee12ec625e35dd9021fbd973a088598d2be921356c6578706572696d656e74616cf50037",
  "source": "// SPDX-License-Identifier: MIT\r\npragma experimental ABIEncoderV2;\r\n\r\npragma solidity >=0.4.22 <0.9.0;\r\ncontract Election {\r\n    struct Candidate {\r\n        string name;\r\n        uint256 voteCount;\r\n    }\r\n\r\n    Candidate[] public candidates;\r\n    address owner;\r\n    mapping(address => bool) public voters;\r\n\r\n    uint256 public votingStart;\r\n    uint256 public votingEnd;\r\n\r\n    constructor(string[] memory _candidateNames, uint256 _durationInMinutes) public {\r\n    for (uint256 i = 0; i < _candidateNames.length; i++) {\r\n        candidates.push(Candidate({\r\n            name: _candidateNames[i],\r\n            voteCount: 0\r\n        }));\r\n    }\r\n    owner = msg.sender;\r\n    votingStart = block.timestamp;\r\n    votingEnd = block.timestamp + (_durationInMinutes * 1 minutes);\r\n}\r\n\r\n    modifier onlyOwner {\r\n        require(msg.sender == owner);\r\n        _;\r\n    }\r\n\r\n    function addCandidate(string memory _name) public onlyOwner {\r\n        candidates.push(Candidate({\r\n                name: _name,\r\n                voteCount: 0\r\n        }));\r\n    }\r\n\r\n    function vote(uint256 _candidateIndex) public {\r\n        require(!voters[msg.sender], \"You have already voted.\");\r\n        require(_candidateIndex < candidates.length, \"Invalid candidate index.\");\r\n\r\n        candidates[_candidateIndex].voteCount++;\r\n        voters[msg.sender] = true;\r\n    }\r\n\r\n    function getAllVotesOfCandiates() public view returns (Candidate[] memory){\r\n        return candidates;\r\n    }\r\n\r\n    function getVotingStatus() public view returns (bool) {\r\n        return (block.timestamp >= votingStart && block.timestamp < votingEnd);\r\n    }\r\n\r\n    function getRemainingTime() public view returns (uint256) {\r\n        require(block.timestamp >= votingStart, \"Voting has not started yet.\");\r\n        if (block.timestamp >= votingEnd) {\r\n            return 0;\r\n    }\r\n        return votingEnd - block.timestamp;\r\n    }\r\n}",
  "sourcePath": "C:\\Users\\singh\\OneDrive\\Desktop\\E_Voting\\contracts\\Election.sol",
  "compiler": {
    "name": "solc",
    "version": "0.5.1+commit.c8a2cb62.Emscripten.clang"
  },
  "schemaVersion": "3.4.14",
  "updatedAt": "2023-06-26T22:43:53.191Z",
  "networkType": "ethereum",
  "devdoc": {
    "methods": {}
  },
  "userdoc": {
    "methods": {}
  }
}